:100000000C9434000C9446000C9446000C9446006A
:100010000C9446000C9446000C9446000C94460048
:100020000C9446000C9446000C9446000C942E014F
:100030000C94E6000C9446000C9446000C94460088
:100040000C9446000C9446000C9446000C94460018
:100050000C9446000C9446000C9446000C94460008
:100060000C9446000C94460011241FBECFEFD8E03C
:10007000DEBFCDBF21E0A0E0B1E001C01D92A43001
:10008000B207E1F70E9478000C9452010C94000032
:1000900084B1806284B9ECE7F0E080818064808381
:1000A00080818F7D8083EAE7F0E0808186688083AD
:1000B0000895ECE7F0E08081807F80838081836019
:1000C0008083EAE7F0E080818064808380917A0019
:1000D00084FFFCCFEAE7F0E080818061808320919B
:1000E00078008091790090E0982F8827822B0895DE
:1000F0000E9448000E9490008AE196E00E94CE0093
:1001000078940E9459008115944029F481E49FE07D
:100110000E94CE00F6CF8AE196E00E94CE00F1CF99
:100120008AB180668AB917BC18BC84B5836F84BD58
:1001300085B5846085BD84B1826084B985B18D7FC9
:1001400085B90895809101018531A0F487B5895E54
:10015000809302018091020187BD87B58E5F8093F5
:1001600002018091020188BD80910301845F809328
:100170000301089587B587518093020180910201A0
:1001800087BD87B58250809302018091020188BDAE
:10019000809103018C508093030108959C0110927B
:1001A0008000E1E8F0E090819C60908330938B00C8
:1001B00020938A0083EF91E09093890080938800D8
:1001C000EFE6F0E080818660808308951F920F92B1
:1001D0000FB60F9211242F933F934F935F936F931A
:1001E0007F938F939F93AF93BF93EF93FF938091F0
:1001F00001018F5F809301010E94A20080910101A3
:10020000883210F010920101FF91EF91BF91AF91F0
:100210009F918F917F916F915F914F913F912F911E
:100220000F900FBE0F901F901895809100018F5F67
:100230008093000190910301891730F01092000122
:1002400085B18D7F85B90895891720F485B18260C5
:1002500085B9089585B18D7F85B908951F920F9254
:100260000FB60F9211242F933F934F935F936F9389
:100270007F938F939F93AF93BF93EF93FF930E94CE
:100280001501FF91EF91BF91AF919F918F917F9158
:100290006F915F914F913F912F910F900FBE0F90F3
:0802A0001F901895F894FFCFA0
:00000001FF
