S01000005450342D4344794D2E73726563C2
S11300000C9434000C9446000C9446000C94460066
S11300100C9446000C9446000C9446000C949001F9
S11300200C9446000C9446000C9446000C94460034
S11300300C9446000C9446000C9459010C94460010
S11300400C9446000C9446000C9446000C94460014
S11300500C9446000C9446000C9446000C94460004
S11300600C9446000C94460011241FBECFEFD8E038
S1130070DEBFCDBF21E0A0E0B1E001C01D92A930F8
S1130080B207E1F70E9475000C94BD010C940000C6
S1130090EAE7F0E0808186688083ECE7F0E0808125
S11300A08064808380818F7D80830895ECE7F0E015
S11300B08081807F8083808183608083EAE7F0E0B1
S11300C080818064808380917A0084FFFCCFEAE79A
S11300D0F0E08081806180832091780080917900B4
S11300E090E0982F8827822B08950E9448000E9450
S11300F08F000E9434010E947D0178940E94560072
S11301009093060180930501893E934020F481E099
S113011080930701F3CF86E080930701EFCF84B18A
S1130120866084B98FEF90E0909389008093880073
S113013090938B0080938A00E0E8F0E08081816AEC
S11301408083E1E8F0E080818C6080831092080174
S113015081E08093070184B1806284B985B18062B3
S113016085B9089580910801813051F130F08230D1
S1130170C1F1833009F458C00895E8E8F0E08081C3
S11301809181809301018091010190E091838083AA
S1130190EAE8F0E0808191818150809301018091AF
S11301A0010190E091838083809102018093020198
S11301B080910401811157C081E080930801089562
S11301C08091040181114FC0809103018F5F80935E
S11301D00301823009F047C08093080110920301A3
S11301E00895E8E8F0E08081918180930101809195
S11301F0010190E091838083EAE8F0E080819181BD
S11302008F5F809301018091010190E0918380834D
S1130210809102018093020180910401811123C025
S113022083E0809308010895E1E8F0E080818B7F0A
S1130230808385B1866285B980910401811113C0E0
S1130240809103018F5F80930301909107018913CB
S11302500AC0109208011092030180818460808397
S113026085B1897D85B9089584B5826084BD85B5DD
S1130270846085BD88E787BDEEE6F0E0808182601A
S113028080830895809100018F5F809300018F3FE8
S113029031F41092000185B18F7D85B90895909154
S11302A0000180910201891718F485B1806285B933
S11302B008951F920F920FB60F9211242F933F931C
S11302C04F935F936F937F938F939F93AF93BF935A
S11302D0EF93FF930E944201FF91EF91BF91AF9181
S11302E09F918F917F916F915F914F913F912F914A
S11302F00F900FBE0F901F901895E0EBF0E08081F7
S113030082608083E1EBF0E080818460808388E711
S11303108093B300E0E7F0E08081826080830895F9
S11303201F920F920FB60F9211242F933F934F9366
S11303305F936F937F938F939F93AF93BF93EF9349
S1130340FF93809104018F5F809304018A3F10F032
S1130350109204010E94B200FF91EF91BF91AF91FE
S11303609F918F917F916F915F914F913F912F91C9
S11103700F900FBE0F901F901895F894FFCFBA
S9030000FC
