S01000005450342D4344794D2E73726563C2
S11300000C9434000C9451000C9451000C94510045
S11300100C9451000C9451000C9451000C94F00178
S11300200C9451000C9451000C9451000C94510008
S11300300C9451000C9451000C94B9010C9451008F
S11300400C9451000C9451000C9451000C945100E8
S11300500C9451000C9451000C9451000C945100D8
S11300600C9451000C94510011241FBECFEFD8E022
S1130070DEBFCDBF11E0A0E0B1E0EEE3F4E002C0EA
S113008005900D92A830B107D9F721E0A8E0B1E0BE
S113009001C01D92A131B207E1F70E9480000C94C7
S11300A01D020C940000EAE7F0E0808186688083FA
S11300B0ECE7F0E080818064808380818F7D8083A1
S11300C00895ECE7F0E08081807F80838081836005
S11300D08083EAE7F0E080818064808380917A0005
S11300E084FFFCCFEAE7F0E0808180618083209187
S11300F078008091790090E0982F8827822B0895CA
S11301000E9453000E9499000E9492010E94DD0106
S113011078940E94610090930D0180930C01893EB4
S1130120934018F410920E01F4CF81E080930E01F5
S1130130F0CF84B1866084B98FEF90E0909389000A
S11301408093880090938B0080938A00E0E8F0E02D
S11301508081816A8083E1E8F0E080818C60808323
S11301601092100181E080930E0184B1806284B901
S113017085B1806285B90895809110018130B1F113
S113018038F0823009F443C0833009F47EC0089506
S113019080910501882371F09091020180910501FD
S11301A0891B809305018091050190E090930701DC
S11301B08093060180910401873670F090910101CB
S11301C080910401891B809304018091040190E0D3
S11301D090938900809388008091030180910B01A2
S11301E081119FC081E080931001089580910B01DB
S11301F0811197C080910A018F5F80930A01823038
S113020009F08FC08093100110920A010895809123
S113021005018F3F71F09091020180910501890FD2
S1130220809305018091050190E0909307018093EC
S11302300601809104018F3F71F09091010180913A
S11302400401890F809304018091040190E090934C
S1130250890080938800809103018F3F71F0909111
S1130260000180910301890F8093030180910301B0
S113027090E090938B0080938A0080910B01811110
S113028050C083E080931001089585B58D7F85BDAE
S1130290E1E8F0E080818B7F808385B1866285B957
S11302A080910B0181113DC080910E01882319F0CA
S11302B08130C1F027C080910A018F5F80930A01C9
S11302C0863079F510920A011092100185B582608A
S11302D085BDE1E8F0E080818460808385B1897D1B
S11302E085B9089510920A011092100185B58260B3
S11302F085BDE1E8F0E080818460808385B1897DFB
S113030085B9089510920A011092100185B5826092
S113031085BDE1E8F0E080818460808385B1897DDA
S113032085B9089584B5826084BD82E085BD9AE074
S113033097BD80936E0008952091080130910901C2
S113034080910601909107018217930720F485B1EB
S11303508F7D85B903C085B1806285B9809108011C
S113036090910901019699279093090180930801BE
S113037008951F920F920FB60F9211242F933F935B
S11303804F935F936F937F938F939F93AF93BF9399
S1130390EF93FF930E949C01FF91EF91BF91AF9166
S11303A09F918F917F916F915F914F913F912F9189
S11303B00F900FBE0F901F901895E0EBF0E0808136
S11303C082608083E1EBF0E080818460808380EF51
S11303D08093B300E0E7F0E0808182608083089539
S11303E01F920F920FB60F9211242F933F934F93A6
S11303F05F936F937F938F939F93AF93BF93EF9389
S1130400FF9380910B018F5F80930B018A3F10F063
S113041010920B010E94BC00FF91EF91BF91AF912C
S11304209F918F917F916F915F914F913F912F9108
S11104300F900FBE0F901F901895F894FFCFF9
S10B043E010101FFFFFFFF00B3
S9030000FC
