S01000005450342D4344794D2E73726563C2
S11300000C9434000C9451000C9451000C94510045
S11300100C9451000C9451000C9451000C94DB018D
S11300200C9451000C9451000C9451000C94510008
S11300300C9451000C9451000C94A4010C945100A4
S11300400C9451000C9451000C9451000C945100E8
S11300500C9451000C9451000C9451000C945100D8
S11300600C9451000C94510011241FBECFEFD8E022
S1130070DEBFCDBF11E0A0E0B1E0E4E1F4E002C0F6
S113008005900D92A830B107D9F721E0A8E0B1E0BE
S113009001C01D92A131B207E1F70E9480000C94C7
S11300A008020C940000EAE7F0E08081866880830F
S11300B0ECE7F0E080818064808380818F7D8083A1
S11300C00895ECE7F0E08081807F80838081836005
S11300D08083EAE7F0E080818064808380917A0005
S11300E084FFFCCFEAE7F0E0808180618083209187
S11300F078008091790090E0982F8827822B0895CA
S11301000E9453000E949A000E947D010E94C8012F
S113011078940E94610090930D0180930C01893EB4
S1130120934020F481E080930E01F3CF86E0809326
S11301300E01EFCF84B1866084B98FEF90E0909385
S113014089008093880090938B0080938A00E0E874
S1130150F0E08081816A8083E1E8F0E080818C6056
S113016080831092100181E080930E0184B180623B
S113017084B985B1806285B9089580911001813078
S113018009F446C038F0823009F453C0833009F4CE
S11301908EC0089580910501893870F09091020114
S11301A080910501891B809305018091050190E0F0
S11301B0909307018093060180910401863570F0C5
S11301C09091010180910401891B80930401809125
S11301D0040190E09093890080938800809103014A
S11301E08C3B70F09091000180910301891B8093F6
S11301F003018091030190E090938B0080938A0027
S113020080910B01811178C081E0809310010895E1
S113021080910B01811170C080910A018F5F8093DE
S11302200A01823009F068C08093100110920A011B
S11302300895809105018F3F71F0909102018091A2
S11302400501890F809305018091050190E0909349
S1130250070180930601809104018F3F71F0909112
S1130260010180910401890F8093040180910401AC
S113027090E09093890080938800809103018F3FE0
S113028071F09091000180910301890F8093030123
S11302908091030190E090938B0080938A00809179
S11302A00B01811129C083E080931001089585B565
S11302B08D7F85BDE1E8F0E080818B7F808385B10F
S11302C0866285B980910B01811116C080910A0163
S11302D08F5F80930A0190910E0189130DC01092D3
S11302E00A011092100185B5826085BD8081846009
S11302F0808385B1897D85B9089584B5826084BD84
S113030082E085BD9AE097BD80936E0008952091A8
S1130310080130910901809106019091070182172B
S1130320930720F485B18F7D85B903C085B18062C0
S113033085B98091080190910901019699279093BC
S113034009018093080108951F920F920FB60F922E
S113035011242F933F934F935F936F937F938F93C6
S11303609F93AF93BF93EF93FF930E948701FF91F5
S1130370EF91BF91AF919F918F917F916F915F9119
S11303804F913F912F910F900FBE0F901F90189592
S1130390E0EBF0E0808182608083E1EBF0E080813B
S11303A08460808388E78093B300E0E7F0E0808195
S11303B08260808308951F920F920FB60F921124CA
S11303C02F933F934F935F936F937F938F939F9359
S11303D0AF93BF93EF93FF9380910B018F5F809353
S11303E00B018A3F10F010920B010E94BD00FF9197
S11303F0EF91BF91AF919F918F917F916F915F9199
S11304004F913F912F910F900FBE0F901F90189511
S1070410F894FFCF8A
S10B0414010101FFFFFFFF00DD
S9030000FC
