:100000000C9434000C9451000C9451000C94510049
:100010000C9451000C9451000C9451000C94B001BC
:100020000C9451000C9451000C9451000C9451000C
:100030000C9451000C9451000C9479010C945100D3
:100040000C9451000C9451000C9451000C945100EC
:100050000C9451000C9451000C9451000C945100DC
:100060000C9451000C94510011241FBECFEFD8E026
:10007000DEBFCDBF11E0A0E0B1E0EEEBF3E002C0E7
:1000800005900D92A230B107D9F721E0A2E0B1E0CE
:1000900001C01D92AB30B207E1F70E9480000C94C2
:1000A000DD010C940000EAE7F0E08081866880833F
:1000B000ECE7F0E080818064808380818F7D8083A5
:1000C0000895ECE7F0E08081807F80838081836009
:1000D0008083EAE7F0E080818064808380917A0009
:1000E00084FFFCCFEAE7F0E080818061808320918B
:1000F00078008091790090E0982F8827822B0895CE
:100100000E9453000E949A000E9452010E949D0189
:1001100078940E9461009093080180930701893EC2
:10012000934020F481E080930901F3CF86E080932F
:100130000901EFCF84B1866084B98FEF90E090938E
:1001400089008093880090938B0080938A00E0E878
:10015000F0E08081816A8083E1E8F0E080818C605A
:10016000808310920A0181E08093090184B180624A
:1001700084B985B1806285B9089580910A01813082
:1001800089F138F0823009F43EC0833009F464C04C
:100190000895E8E8F0E08081918181508093040126
:1001A0008091040190E091838083EAE8F0E080810F
:1001B00091818150809304018091040190E09183AA
:1001C000808380910001909101010197909301013A
:1001D0008093000180910601811163C081E08093CA
:1001E0000A0108958091060181115BC0809105018B
:1001F0008F5F80930501823009F053C080930A011C
:10020000109205010895E8E8F0E0808191818F5F08
:10021000809304018091040190E091838083EAE857
:10022000F0E0808191818F5F8093040180910401CF
:1002300090E091838083809100019091010101966B
:10024000909301018093000180910601811129C0E2
:1002500083E080930A01089585B58D7F85BDE1E82F
:10026000F0E080818B7F808385B1866285B9809143
:100270000601811116C0809105018F5F80930501F1
:100280009091090189130DC010920A011092050185
:1002900085B5826085BD80818460808385B1897DDC
:1002A00085B9089584B5826084BD82E085BD97E2FA
:1002B00097BD80936E000895209102013091030153
:1002C00080910001909101012817390720F485B130
:1002D0008F7D85B903C085B1806285B980910201A7
:1002E0009091030101969927909303018093020155
:1002F00008951F920F920FB60F9211242F933F93E0
:100300004F935F936F937F938F939F93AF93BF931D
:10031000EF93FF930E945C01FF91EF91BF91AF912A
:100320009F918F917F916F915F914F913F912F910D
:100330000F900FBE0F901F901895E0EBF0E08081BA
:1003400082608083E1EBF0E080818460808389EFCC
:100350008093B300E0E7F0E08081826080830895BD
:100360001F920F920FB60F9211242F933F934F932A
:100370005F936F937F938F939F93AF93BF93EF930D
:10038000FF93809106018F5F809306018A3F10F0F2
:10039000109206010E94BD00FF91EF91BF91AF91B5
:1003A0009F918F917F916F915F914F913F912F918D
:0E03B0000F900FBE0F901F901895F894FFCF7E
:0203BE00FF003E
:00000001FF
