S01000005450342D4344794D2E73726563C2
S11300000C9434000C9446000C9446000C94460066
S11300100C9446000C9446000C9446000C94460044
S11300200C9446000C9446000C9446000C94B000CA
S11300300C9446000C9446000C9446000C94460024
S11300400C9446000C9446000C9446000C94460014
S11300500C9446000C9446000C9446000C94460004
S11300600C9446000C94460011241FBECFEFD8E038
S1130070DEBFCDBF21E0A0E0B1E001C01D92A630FB
S1130080B207E1F70E9448000C9406010C940000AA
S11300900E944E000E94A1007894FFCF8AB180662E
S11300A08AB917BC18BC84B5836F84BD85B58460D8
S11300B085BD84B1826084B9E0E8F0E08081896C18
S11300C08083E1E8F0E080818460808308958091FA
S11300D000018A30D8F087B5895E80930101809150
S11300E0010187BD87B58E5F809301018091010175
S11300F088BDE8E8F0E080819181845F809301010C
S11301008091010190E091838083089587B58751A0
S1130110809301018091010187BD87B5825080934E
S113012001018091010188BDE8E8F0E080819181BE
S11301308C50809301018091010190E09183808330
S11301400895109280008CE0809381008AE698E103
S1130150909389008093880082E080936F000895D3
S11301601F920F920FB60F9211242F933F934F9328
S11301705F936F937F938F939F93AF93BF93EF930B
S1130180FF938091020190910301A0910401B09129
S113019005010196A11DB11D8093020190930301F5
S11301A0A0930401B0930501809102019091030191
S11301B0A0910401B09105010297A105B105A8F031
S11301C0809100018F5F8093000180910001843150
S11301D010F0109200010E94670010920201109228
S11301E003011092040110920501FF91EF91BF9158
S11301F0AF919F918F917F916F915F914F913F91BB
S11302002F910F900FBE0F901F901895F894FFCF69
S9030000FC
